:020000040800F2
:1000000090070020010100081B1C0008651A000869
:10001000191C00083D0200083D1F000800000000F8
:100020000000000000000000000000003F1C00086D
:1000300065060008000000003D1C0008411C000887
:100040001B0100081B0100081B0100081B01000820
:100050001B0100081B0100081B0100081B01000810
:100060001B0100081B0100081B0100081B01000800
:100070001B0100081B0100081B0100081B010008F0
:100080001B0100081B0100081B0100081B010008E0
:10009000311F00081B0100081B0100081B0100089C
:1000A0001B0100081B0100081B0100081B010008C0
:1000B0001B010008DD1C00081B0100081B010008D3
:1000C0001B0100081B0100081B0100081B010008A0
:1000D0001B0100081B0100081B0100081B01000890
:1000E0001B0100081B0100081B010008DFF80CD0F1
:1000F00000F02AF8004800475D1F00089007002024
:100100000648804706480047FEE7FEE7FEE7FEE7B1
:10011000FEE7FEE7FEE7FEE7FEE7FEE7951C0008C8
:10012000ED000008D2B201E000F8012B491EFBD21D
:1001300070470022F6E710B513460A4604461946F2
:10014000FFF7F0FF204610BD064C074D06E0E068C3
:1001500040F0010394E8070098471034AC42F6D30E
:10016000FFF7C8FF282000084820000870B58C1849
:1001700010F8015B15F0070301D110F8013B2A11BB
:1001800006D110F8012B03E010F8016B01F8016BA8
:100190005B1EF9D12B0705D40023521E0DD401F8A4
:1001A000013BFAE710F8013BCB1A921C03E013F86D
:1001B000015B01F8015B521EF9D5A142D8D30020A2
:1001C00070BD000070B50024094D022615F83400FA
:1001D00048B1012807D1204600F032FA142000F07F
:1001E000D3FD05F83460641CE4B2052CEED370BD79
:1001F0001800002070470000082A1CD10A785A2AEB
:1002000019D14B780C4A43B98B78002B13D10123B9
:1002100002F830300B785A2B0DD14B78092B0AD1CC
:100220008978002907D102EBC0014A88521C4A8014
:100230004A6801211047704718000020FEE70000BF
:1002400030B4026840F24224A2F24223A2421DD0FE
:100250000ADCB2F5A87F10D0B2F5107F13D05A1C7B
:100260000FD1027C012005E0012B12D0022B08D116
:10027000027C042030BCFFF7BFBF07484168491C1F
:10028000416030BC7047027C0020F3E7027C022012
:10029000F0E7027C0320EDE70000002000B58BB002
:1002A0000020009001900290012103900590CDE97B
:1002B000060104900E20CDE908106946064800F0BA
:1002C00049FA054800F02CFD002803D1022102481C
:1002D00000F0CAF90BB000BDE802002010B50F4CC9
:1002E000207868B101280FD0022808D1102304F12A
:1002F0006002FE210A4800F02DF80020207010BD99
:10030000064A1023403202E0044A10235032FE21F4
:10031000034800F01FF82078401CEFE700000020A1
:10032000E802002010B50823084AFE21084800F022
:1003300011F8012000F028FD044A08230832BDE826
:100340001040FE21024800F005B80000080000201F
:10035000E80200202DE9F047824686B000200827F9
:1003600000910290CDE903071E469146044621E024
:10037000301BC0B2082801D3049700E00490002588
:1003800041F2883802E06D1C454504D8504600F023
:10039000CDFA0028F7D009EB0402084B6946504615
:1003A00000F074F918B1002006B0BDE8F087049899
:1003B0002044C4B2B442DBD30120F5E7840200201C
:1003C00010B54FF4A0741223084A21460848FFF7DD
:1003D000C1FF012000F0D8FC044A21461423BDE8E7
:1003E000104012320248FFF7B5BF00006E01002036
:1003F000E802002010B54FF4A0741223084A2146E9
:100400000848FFF7A7FF012000F0BEFC044A214680
:100410001423BDE8104012320248FFF79BBF0000D2
:10042000B0000020E80200201023034A4FF4A0711E
:100430000248FFF78FBF000070000020E802002094
:1004400010B540F241141223084A21460848FFF72C
:1004500081FF012000F098FC044A21461423BDE8E6
:10046000104012320248FFF775BF000094010020CF
:10047000E802002010B540F241141223084A214638
:100480000848FFF767FF012000F07EFC044A214680
:100490001423BDE8104012320248FFF75BBF000092
:1004A000D6000020E80200201023034A40F2411148
:1004B0000248FFF74FBF000080000020E802002044
:1004C00010B54FF4A1741223084A21460848FFF7DB
:1004D00041FF012000F058FC044A21461423BDE8E6
:1004E000104012320248FFF735BF0000BA01002069
:1004F000E802002010B54FF4A1741223084A2146E7
:100500000848FFF727FF012000F03EFC044A21467F
:100510001423BDE8104012320248FFF71BBF000051
:10052000FC000020E80200201023034A4FF4A171D0
:100530000248FFF70FBF000090000020E8020020F3
:1005400010B540F243141223084A21460848FFF729
:1005500001FF012000F018FC044A21461423BDE8E5
:10056000104012320248FFF7F5BE0000E001002003
:10057000E802002010B540F243141223084A214635
:100580000848FFF7E7FE012000F0FEFB044A214681
:100590001423BDE8104012320248FFF7DBBE000012
:1005A00022010020E80200201023034A40F24311F8
:1005B0000248FFF7CFBE0000A0000020E8020020A4
:1005C00010B54FF4A2741223084A21460848FFF7D9
:1005D000C1FE012000F0D8FB044A21461423BDE8E7
:1005E000104012320248FFF7B5BE0000060200209C
:1005F000E802002010B54FF4A2741223084A2146E5
:100600000848FFF7A7FE012000F0BEFB044A214680
:100610001423BDE8104012320248FFF79BBE0000D1
:1006200048010020E80200201023034A4FF4A27181
:100630000248FFF78FBE0000A0000020E802002063
:1006400005280ED2DFE800F0030507090B00FFF7CD
:10065000EBBEFFF729BFFFF767BFFFF7A5BFFFF7A7
:10066000E3BF70477047704790F82020012A07D0F9
:10067000022A05D0416A41F480214162012070477D
:10068000006842690A43426100207047F0B590F863
:1006900020500468A468012D05D0022D03D0416AC2
:1006A00041F4802153E014F0406F01D1E5004BD5B7
:1006B000C4F30164022C03D9416A41F4000146E00D
:1006C0000125A5401D608D684FF4C0739DB1CE68B3
:1006D00035434E6845EAC605066803EB0417F55135
:1006E0004FF4C275076805EB04150E697E51097D4C
:1006F000012905D009E00E88CD6845EA4655EBE7AB
:1007000001684E5946F480764E511179D2F8055061
:100710004FF4C67641EA0525016806EB04168D51B3
:100720001178D2F801204FF4C47541EA0221026821
:1007300005EB04155151006803EB0411425842F0D7
:10074000010242500020F0BD416A41F400114162B3
:100750000120F0BD10B590F820300268012B07D0C1
:10076000022B05D0416A41F480214162012010BD75
:10077000D2F8000240F00100C2F80002087D00F04B
:100780001F0301209840D2F81C328343C2F81C3268
:10079000CB69B3B9D2F80C328343C2F80C328C89DE
:1007A0004B6864F31F434C6902EBC404C4F8403245
:1007B0000C890B6864F31F434C6902EBC404C4F852
:1007C0004432CB69012B16D1D2F80C320343C2F864
:1007D0000C320C884B6864F31F434C6902EBC40471
:1007E000C4F840320C89CB6864F31F434C6902EBB8
:1007F000C404C4F844328B69002BD2F804320FD001
:1008000053EA0003C2F804320B69002BD2F8143209
:1008100008D00343C2F81432096A012904D008E061
:100820008343EFE78343F5E7D2F81C120143C2F894
:100830001C12D2F8000220F00100C2F800020020D1
:1008400010BD704730B590F82040012C05D0022C27
:1008500003D0416A41F480215DE00468002955D04D
:100860002469A40754D04FF4D874056804EB01142C
:100870002D5915F00405956005682D594ED0ED08E9
:10088000556005682C59C4F34004D4604FF4DA7401
:10089000056804EB01142D5905F00F051561056875
:1008A0002D59C5F30725956105682C59240C546111
:1008B0004FF4DC72046802EB0112A4581C70046847
:1008C000A458240A5C700468A458240C9C70046822
:1008D000A258120EDA704FF4DE72046802EB0112B5
:1008E000A4581C710468A458240A5C710468A458B4
:1008F000240C9C710468A258120EDA71006881B150
:10090000016941F020010161002030BDE468A8E7E1
:10091000416A41F400114162012030BD6D0D156046
:10092000AFE7C16841F02001C160EDE70246002059
:1009300092F82010012901D002290CD111688A688F
:10094000520100D501208A68120100D5401C896837
:10095000C90000D5401C70472DE9F05F05460068CE
:1009600000244669D0F804908768D0F80CB0D0F81D
:1009700010A0D0F81880F10748D0F90714D0012151
:100980008160B80703D5284600F0F7F90CE0780736
:1009900002D54FF4006407E0380702D54FF48054C5
:1009A00002E0284600F0E8F9F80516D529684FF46A
:1009B00080708860B80503D5284600F0E0F90CE0A7
:1009C000780502D544F4005407E0380502D544F414
:1009D000804402E0284600F0D1F9F80316D52968D2
:1009E0004FF480308860B80303D5284600F0C9F979
:1009F0000CE0780302D544F4004407E0380302D544
:100A000044F4803402E0284600F0BAF9300707D5F4
:100A10005FEACB6004D52968102044F40074C860F4
:100A200070074FF0080707D55FEA0B7004D52868F8
:100A3000C760284600F05AF9B00706D52868C06894
:100A4000800702D0284600F053F9700607D55FEA08
:100A5000CA6004D52968102044F480640861B00697
:100A600007D55FEA0A7004D528680761284600F0B8
:100A700053F9F00606D528680069800702D0284699
:100A800000F04BF9B00308D55FEAC96005D52968C5
:100A900010204860284600F041F9F00307D55FEACE
:100AA000097004D528684760284600F06BF93004C7
:100AB00046D55FEA497040D5F00504D55FEAC870B5
:100AC00001D044F00104B00504D55FEA887001D577
:100AD00044F00204700504D55FEA487001D544F083
:100AE0000404300529D518F0700F26D008F07000E6
:100AF000402815D006DC102809D020280AD030283C
:100B000016D10AE050280ED0602811D10EE044F032
:100B100008040DE044F010040AE044F0200407E06B
:100B200044F0400404E044F0800401E044F48074A4
:100B30002868816921F0700181612968042048607A
:100B4000002C05D0686A204368622846FFF779FECA
:100B5000BDE8F09F70B5040003D094F8200010B1F8
:100B600004E0012070BD204600F082F82068016892
:100B700021F00201016000F005FA0546052604E0B7
:100B800000F000FA401B0A2811D82068406880074E
:100B9000F6D42068016841F00101016000F0F2F92B
:100BA00005460BE000F0EEF9401B0A2806D9606A02
:100BB00040F40030606284F82060D2E7206840682A
:100BC000C007EFD0207E0128206801683DD021F0C9
:100BD00080010160607E01282068016838D021F022
:100BE00040010160A07E01282068016833D021F017
:100BF00020010160E07E0128206801682ED041F0CC
:100C000010010160207F01282068016829D021F0AF
:100C100008010160607F01282068016824D021F06C
:100C200004010160D4E902010843D4E9041211432C
:100C300008436168491E08432168C861002060625A
:100C4000012084F82000002070BD41F08001C0E741
:100C500041F04001C5E741F02001CAE721F0100151
:100C6000CFE741F00801D4E741F00401D9E70000E3
:100C700010B586B0002100910191029103910068A6
:100C8000174988422AD11748C16941F00071C161F2
:100C9000C16901F000710491816941F00401816131
:100CA0008069114C00F0040004904FF40060009043
:100CB0006946204600F07AF8A014009002200190C6
:100CC000032003906946204600F070F80022114688
:100CD000142000F0C1F9142000F0B2F906B010BDE4
:100CE000006400400010024000080140704700000E
:100CF00000B5084A016889B0914208D107AB6A463D
:100D00000021FFF79FFD07A96846FFF799FA09B090
:100D100000BD00000064004070477047704700004D
:100D200070B5044690F82000012804D0606A40F4B1
:100D30000020606218E0022084F82000206801682A
:100D400021F00101016000F01DF905460EE000BF31
:100D500000F018F9401B0A2808D9606A40F40030F6
:100D60006062052084F82000012070BD2068406882
:100D7000C007EDD1606270BD704770477047704723
:100D8000704770477047000070B5044600F0FAF8ED
:100D90000546601C02D004480078044400F0F2F8D4
:100DA000401BA042FAD370BD740200202DE9F84F19
:100DB000DFF890A100220AF1040B144601274FF03E
:100DC0000F090BF1040E00BF0B6807FA04F52B4066
:100DD000AB4274D1DFF870C14E68A6EB0C086645D3
:100DE0002BD00DDC032E34D005DC36B3012E19D008
:100DF000022E2FD11BE0112E16D0122E2AD119E06F
:100E0000B8F5881F19D006DCB8F5803F15D0B8F5C5
:100E1000801F1FD111E0B8F5001F0ED0B8F5041FD8
:100E200018D10AE0CA6815E0CA68121D12E0CA6843
:100E300008320FE0CA680C320CE08A682AB1012A35
:100E40004FF0080203D0456104E0042202E005618E
:100E500000E00022FF2B01D8064601E000F1040665
:100E60004FEA840501D9A5F12005D6F800C009FA9A
:100E700005F82CEA080C02FA05F54CEA050CC6F850
:100E800000C04D68ED0057D5304DAE6946F0010603
:100E9000AE61AD6924F0030605F0010500952C4D07
:100EA00006EB050CDCF80850A6074FEA167809FA9D
:100EB00008F6B543274EB04202D1002610E03BE0D1
:100EC000254EB04201D101260AE0244EB04201D1A4
:100ED000022605E0224EB04201D1032600E004269E
:100EE00006FA08F62E43CCF808604D68DAF8006080
:100EF000ED03554601D51E4300E09E432E604D682C
:100F0000DBF80060AD035D4601D51E4300E09E4363
:100F10002E604D68DEF80060ED02754601D51E4377
:100F200000E09E432E604D68AD020E4D2E6801D547
:100F30001E4300E09E432E60641C102CFFF444AF5F
:100F4000BDE8F88F000401400000111000100240BD
:100F50000000014000080140000C01400010014069
:100F6000001401400C0401408068084000D00120BA
:100F70007047C2684A40C26070470AB10161704759
:100F80000904FBE7014880687047000074020020F4
:100F90000248816802781144816070477402002021
:100FA000074810B5016841F010010160032000F00E
:100FB00073F8002000F006F800F024F8002010BDBF
:100FC0000020024070B50D4D04464FF47A71287828
:100FD000B1FBF0F00A490968B1FBF0F000F0FCFA4F
:100FE00048B9102C07D200222146501E00F034F8D8
:100FF00000206C6070BD012070BD000074020020F4
:10100000800200200C4808B5816941F0010181612E
:10101000816901F001010091C16941F08051C16114
:10102000C06900F0805000900448416821F0E06100
:1010300041F00071416008BD001002400000014015
:1010400000F01F02012191404009800000F1E020E2
:10105000C0F8001170470000F0B40E4B1B680C463E
:10106000C3F30223C3F10705042D00D90425191D7C
:10107000072901D2002300E0DB1E012606FA05F154
:10108000491E214099409E40761E16403143F0BCD7
:1010900000F0C4BD0CED00E0064900F0070208684E
:1010A0004FF6FF03184040EA0220034A104308604D
:1010B000704700000CED00E00000FA052DE9F04754
:1010C000DFF8548105460E46D8F8000000F007000E
:1010D000B0420CD2D8F8001021F007013143C8F813
:1010E0000010D8F8000000F00700B0426FD1286867
:1010F0004A4C810712D5400703D5606840F4E06090
:1011000060602878000703D5606840F46050606034
:101110006068A96820F0F000084360602878C00784
:1011200044D06868012816D02168022816D08907A3
:1011300000294CDA616821F0030101436160FFF787
:1011400021FF6968074641F2883001290ED0022943
:10115000814618D026E021688903E9E78901E7E79D
:10116000FFF710FFC11B494501D918E081466068AF
:10117000C0F381000128F3D118E000BFFFF702FFA0
:10118000C11B49450BD86068C0F381000228F5D126
:101190000CE000BFFFF7F6FEC11B494502D9032052
:1011A000BDE8F087606810F00C0FF3D1D8F800109C
:1011B000404601F00701B1420BD9016821F0070157
:1011C00031430160006800F00700B04201D0012007
:1011D000E6E72878400705D56068E96820F4E06014
:1011E000084360602878000706D56068296920F404
:1011F000605040EAC100606000F036F86168084A5B
:10120000C1F30311515CC840064908600020FFF794
:10121000D9FE0020C4E70000002002400010024078
:101220001020000880020020044805490068496831
:10123000044AC1F30221515CC8407047800200207B
:101240000010024020200008044805490068496851
:10125000044AC1F3C221515CC8407047800200209B
:10126000001002402020000812A185B00FC98DE8AF
:101270000F0014A0144A006804905168134801F04C
:101280000C03042B10D0082B0ED1C1F38343C903E8
:101290001DF803000AD5516804AAC1F34041515C0E
:1012A0000A4A5043B0FBF1F005B070470849484383
:1012B000FAE7000002030405060708090A0B0C0DF3
:1012C0000E0F1010010200000010024000127A0000
:1012D00000093D002DE9F84F04460078B94DC007DC
:1012E00048D06868C0F38100012807D06868C0F35F
:1012F0008100022809D16868C00306D528688003E8
:1013000038D5606800286FD034E06068B0F5803F61
:101310000BD010B1B0F5A02F11D0286820F4803088
:101320002860286820F4802002E0286840F480309B
:101330002860606888B1FFF725FE064609E0286846
:1013400040F480202860F0E7FFF71CFE801B642833
:1013500075D828688003F7D50CE0FFF713FE064622
:1013600005E000BFFFF70EFE801B6428F0D8286858
:101370008003F7D42078944E80074FF001094FF096
:1013800000083BD5686810F00C0F07D06868C0F300
:101390008100022809D16868C00306D42868800744
:1013A00014D5206901281FD110E02069B0B1C6F81A
:1013B0000090FFF7E7FD074605E000BFFFF7E2FDFD
:1013C000C01B0228C4D828688007F7D5286861693F
:1013D00020F0F80040EAC10028600FE0C6F8008065
:1013E000FFF7D0FD074606E0E9E000BFFFF7CAFDC2
:1013F000C01B022823D828688007F7D4207800076C
:101400002CD57248A169D9B1C0F80090FFF7BAFD98
:10141000074604E0FFF7B6FDC01B02280FD8686A34
:101420008007F7D56A484FF4FA510068B0FBF1F035
:10143000009000BF0098411E0091FAD20EE080E0BB
:10144000C0F80080FFF79EFD074604E0FFF79AFD15
:10145000C01B022875D8686A8007F7D42078400737
:1014600060D5E8690027C00008D4E86940F08050E2
:10147000E861E869012700F0805000905548016854
:10148000C90513D40168834641F480710160FFF7F8
:1014900079FD824606E000BFFFF774FDA0EB0A006D
:1014A00064284ED8DBF80000C005F5D5E0680128B7
:1014B0000AD008B1052813D0286A20F0010028625C
:1014C000286A20F0040002E0286A40F00100286247
:1014D000E06841F2883B98B1FFF754FD82460BE08B
:1014E000286A40F004002862EEE700BFFFF74AFDDB
:1014F000A0EB0A0159455AD8286A8007F6D50CE0B6
:10150000FFF740FD824605E0FFF73CFDA0EB0A0136
:1015100059454CD8286A8007F6D41FB1E86920F0F5
:101520008050E861E06988B36968C1F381010229EC
:1015300045D00228C6F8608004D0FFF723FD04469A
:1015400038E034E0FFF71EFD074604E0FFF71AFD20
:10155000C01B02282BD828688001F7D4206AB0F578
:10156000803F05D16868A16820F4003008436860B6
:10157000D4E908010843696821F4741108436860DC
:10158000C6F86090FFF7FEFC044606E015E000BFD9
:10159000FFF7F8FC001B022809D828688001F7D55E
:1015A0000BE000BFFFF7EEFC001B022802D903206E
:1015B000BDE8F88F28688001F4D40020F8E7012006
:1015C000F6E7000000100240000042428004424260
:1015D000800200200070004010B5401EB0F1807FF6
:1015E00001D3012010BD4FF0E02460610F2160178E
:1015F00000F014FB0020A06107202061002010BD36
:101600007047704730B590F83C20012A20D0012265
:1016100080F83C20022380F83D3003685C6824F0A9
:1016200070045C6003685C680D682C435C60036850
:101630009C6824F080049C6003689C6849680C43A3
:101640009C6080F83D20002180F83C10084630BDA9
:10165000022030BD10B5040003D094F83D0010B155
:1016600007E0012010BD002084F83C00204600F077
:101670000DF8022084F83D00211D206800F034FBA5
:10168000012084F83D00002010BD000008B500686E
:101690000B49884212D10B48C16941F00201C16176
:1016A000C069002200F00200009011461D20FFF7E3
:1016B000D3FCBDE808401D20FFF7C2BC08BD0000F8
:1016C00000040040001002400168CA6842F00102B4
:1016D000CA600068016841F00101016000207047A4
:1016E00070B5044690F83C00012817D0012584F815
:1016F0003C50022084F83D002068826822F0770286
:1017000022F47F4282600868502837D00DDC202800
:1017100059D005DC88B3102841D151E0022070BDBA
:10172000302853D040283AD13FE060282ED070288E
:101730000BD0B0F5805F03D0B0F5005F2FD110E083
:101740002068816821F0070115E0CB68D1E901210B
:10175000206800F0FFFA2168886840F07700886010
:101760001DE0CB68D1E90121206800F0F3FA206880
:10177000816841F48041816011E01EE0CA684968D7
:10178000206800F0F9FA5021206806E0CA6849682C
:10179000206800F002FB6021206800F0E5FA84F880
:1017A0003D50002084F83C0070BDCA68496820683C
:1017B00000F0E2FA40212068EFE700212068ECE722
:1017C00010212068E9E720212068E6E73021206821
:1017D000E3E7704770B50446006801694FF0000503
:1017E000C943890715D4C168C943890711D4E91EC3
:1017F000016101202077206880698007204602D09F
:10180000FFF7E7FF04E000F098F8204600F096F8B4
:10181000257720680169C943490717D4C168C943BE
:10182000490713D46FF0040101610220207720687A
:10183000806910F4407F204602D0FFF7CAFF04E021
:1018400000F07BF8204600F079F8257720680169E0
:10185000C943090716D4C168C943090712D46FF0F8
:1018600008010161042020772068C06980072046B4
:1018700002D0FFF7AEFF04E000F05FF8204600F072
:101880005DF8257720680169C943C90617D4C16886
:10189000C943C90613D46FF01001016108202077F5
:1018A0002068C06910F4407F204602D0FFF791FF06
:1018B00004E000F042F8204600F040F82577206868
:1018C0000169C943C90708D1C168C943C90704D11F
:1018D000891E0161204600F033F820680169C94380
:1018E000090609D4C168C943090605D46FF080010F
:1018F00001612046FFF784FE20680169C94349065B
:1019000009D4C168C943490605D46FF0400101619B
:10191000204600F03DF820680169C94389060BD4D0
:10192000C168C943890607D46FF0200101612046D0
:10193000BDE87040FFF765BE70BD7047704700009E
:1019400010B510490068096888421AD10E49086824
:10195000401C08604FF4FA71B0FBF1F201FB120079
:1019600000280ED1094C80212046FFF702FB4021C0
:101970002046FFF7FEFA2046BDE810402021FFF781
:10198000F8BA10BD1003002070020020000C0140C6
:10199000704770B5040004D094F83900002510B1E8
:1019A00006E0012070BD84F83850204600F022F88F
:1019B000242084F839002068C16821F40051C160F6
:1019C000204600F0FDF92068016921F49041016191
:1019D0002068416921F02A0141612068C16841F411
:1019E0000051C160E563202084F8390084F83A0092
:1019F000002070BD30B585B000240094019402949D
:101A0000039400681449884224D11448816941F440
:101A100080418161816901F480410491816941F0D3
:101A20000401816180690E4D00F0040004904FF4C0
:101A30000070009002200190032003906946284620
:101A4000FFF7B4F92815CDE9000469462846029449
:101A5000FFF7ACF905B030BD00380140001002407E
:101A600000080140FEE700000F4810B50D49016075
:101A70000621416000214FF400328160C0E9031269
:101A8000D2004261017641768176C1760177417755
:101A9000FFF760F8002803D0BDE81040FEF7E3BD73
:101AA00010BD000000640040E80200202DE9F04174
:101AB00086B000252C480095019502950395816913
:101AC00041F010018161816901F010010491816987
:101AD00041F020018161816901F020010491816957
:101AE00041F004018161816901F00401049181697F
:101AF00041F0080181618069DFF8708000F0080022
:101B00004FF478770490002239464046FFF735FAC3
:101B10004FF460400324CDE9000469461448FFF700
:101B200045F948F2FF10CDE9000469461148FFF776
:101B30003DF901268DE8700069464046FFF736F909
:101B40004FF61C40CDE9000469464046FFF72EF9E8
:101B50000220CDE90250CDE9007669464046FFF704
:101B600025F906B0BDE8F08100100240000C0140EC
:101B7000001001400008014010B586B0002417484D
:101B80000094019402940394049413490594016011
:101B90004721C0E9011440F2E731C0E90314846130
:101BA000FFF758FD08B1FEF75EFD4FF4805000903E
:101BB00069460A48FFF794FD08B1FEF754FD049406
:101BC00004A906480594FFF71DFD002801D0FEF783
:101BD0004AFD06B010BD00000004004010030020C4
:101BE0000C4810B50A4901604FF4E1314160002111
:101BF00081600C22C160C0E904128161C161FFF7FC
:101C0000C8FE002803D0BDE81040FEF72CBD10BD73
:101C10000038014050030020FEE770470907090E15
:101C2000002806DA00F00F0000F1E02080F8141D13
:101C3000704700F1E02080F800147047704770474B
:101C4000FFF7A6B930B58FB028216846FEF771FAC4
:101C500014210AA8FEF76DFA01210804CDE900104D
:101C60000024029402250491CDE907504FF4E010BE
:101C700009906846FFF72EFB0F20CDE90A056802A0
:101C8000CDE90C4002210AA80E94FFF717FA0FB015
:101C900030BD00000D48016841F00101016041685C
:101CA0000B4A1140416001680A4A11400160016815
:101CB00021F480210160416821F4FE0141604FF46C
:101CC0001F0181600449C003086070470010024092
:101CD0000000FFF8FFFFF6FE08ED00E00148FFF707
:101CE00079BD000010030020F0B50268164B174CB8
:101CF000174D4FF08047984205D0B84203D0A0421C
:101D000001D0A84203D122F070064A6832439842BB
:101D100005D0B84203D0A04201D0A84203D122F49A
:101D20004074CA68224322F080044A692243026058
:101D30008A68C2620A688262984201D109690163B5
:101D400001214161F0BD0000002C01400004004071
:101D50000008004010B5846842EA032224F47F445E
:101D60000A432243826010BD826822F070020A4357
:101D700042F007018160704710B5036A046A24F0DD
:101D800001040462846924F0F00444EA021423F09C
:101D90000A020A438461026210BD10B5036A23F08F
:101DA000100303628369046A23F4704343EA023236
:101DB00024F0A00343EA01118261016210BD00001A
:101DC0002DE9F041044600680169E26821F44051C0
:101DD000114301612169A0680843616908432168D2
:101DE000CA6841F20C639A430243CA6020684169A1
:101DF000A26921F44071114341614C492068642576
:101E0000322688423CD1FFF71FFA00EBC00101EBFC
:101E1000001061688900B0FBF1F7FFF715FA00EBDD
:101E2000C00101EB00106168B0468900B0FBF1F021
:101E3000B0FBF5F06FF01801484307EB800106EBAB
:101E40000110B0FBF5F000F0F006FFF7FDF900EB34
:101E5000C00101EB001061688900B0FBF1F0B0FB3C
:101E6000F5F006EB0016FFF7EFF900EBC00101EB10
:101E7000001061688900B0FBF1F7FFF7E5F93BE07E
:101E8000FFF7D2F900EBC00101EB00106168890097
:101E9000B0FBF1F7FFF7C8F900EBC00101EB001050
:101EA0006168B0468900B0FBF1F0B0FBF5F06FF06F
:101EB0001801484307EB800106EB0110B0FBF5F079
:101EC00000F0F006FFF7B0F900EBC00101EB0010E5
:101ED00061688900B0FBF1F0B0FBF5F006EB00168D
:101EE000FFF7A2F900EBC00101EB00106168890067
:101EF000B0FBF1F7FFF798F900EBC00101EB001020
:101F000061688900B0FBF1F0B0FBF5F06FF01801EB
:101F1000484307EB800108EB0110B0FBF5F02168A6
:101F200000F00F0030448860BDE8F08100380140C7
:101F30000148FEF711BD0000E8020020FEE702E0C4
:101F400008C8121F08C1002AFAD170477047002044
:101F500001E001C1121F002AFBD17047FFF720F8F2
:101F6000FFF770FEFFF7A2FDFFF77EFDFFF704FE0F
:101F7000FFF736FE2248FFF7A7FB224CE070FEF782
:101F80008DF9A0700A20FEF7FFFEFEF7CBF91E4D7B
:101F90001E4E00BFFEF716F928686168401AC8286F
:101FA00003D3FEF79BF92868606001213046FEF7F5
:101FB000DBFFF0B9207801281BD1607868B10020E0
:101FC000607060B1FEF7FCF9FEF73AFAFEF778FAB6
:101FD000FEF7B6FAFEF7F4FA0BE00120F0E7FEF7A1
:101FE00009FAFEF747FAFEF785FAFEF7C3FAFEF79D
:101FF00001FB01213046FEF7B7FF2070CAE7000061
:10200000100300206802002070020020000C014034
:102010000000000000000000010203040607080998
:102020000000000001020304482000080000002016
:10203000840200006C010008AC210008840200202A
:102040000C0500004E1F0008116201225A12331DB8
:102050000101FFFF10451512FCEA13F5010A1E08E5
:102060000819387A0C381CB82F6F107A56101C7E5D
:10207000DD67107AAC101C72E876101A05101A028F
:10208000781E0715CF1D49102119102A01106CDF89
:102090007356102A02106C9174F1102A03102D5CF3
:1020A000B6E85A3A2B010B061204100870010B1FF8
:1020B0009A5A04190E39121205229612FF1BA0D04B
:1020C0002619362A0B5612041E73010B69F12639A4
:1020D00038191212052A10266B349526196C120431
:1020E0006E3D010BD46D26191212052A5E266BC7B0
:1020F0004126198212046EF0010B8E192619121254
:10210000052A93266BE35A262A04266EA1010BBFEB
:102110005C26191212052AC2264B30E0BE39FE1287
:10212000044EFB01016821BE39121205331DFF4B1D
:102130005C2F4C4A01BE4EF801011E4A4C39121266
:10214000052A9B266BC86A2639BE6EB60101A3D646
:102150002639BE2AD5266B3BBE2639BE6E7B0101D1
:10216000F9A22639BE2A18266B1FA52639BE6E2A6B
:102170000101C8E72639BE2A49261BCC1F141916AF
:10218000150B02FF01440610011B2C53141B860182
:102190002839142AF9152A8D146B8A01282A471424
:0C21A000C32D1D291282100400A24A0465
:04000005080000ED02
:00000001FF
