:020000040800F2
:10000000A00600200101000877190008C5170008A4
:10001000751900089F010008991C000800000000E5
:100020000000000000000000000000009B19000814
:100030006103000800000000991900089D190008DC
:100040001B0100081B0100081B0100081B01000820
:100050001B0100081B0100081B0100081B01000810
:100060001B0100081B0100081B0100081B01000800
:100070001B0100081B0100081B0100081B010008F0
:100080001B0100081B0100081B0100081B010008E0
:100090008D1C00081B0100081B0100081B01000843
:1000A0001B0100081B0100081B0100081B010008C0
:1000B0001B010008391A00081B0100081B01000879
:1000C0001B0100081B0100081B0100081B010008A0
:1000D0001B0100081B0100081B0100081B01000890
:1000E0001B0100081B0100081B010008DFF80CD0F1
:1000F00000F02AF800480047B91C0008A0060020BC
:100100000648804706480047FEE7FEE7FEE7FEE7B1
:10011000FEE7FEE7FEE7FEE7FEE7FEE7F11900086F
:10012000ED000008D2B201E000F8012B491EFBD21D
:1001300070470022F6E710B513460A4604461946F2
:10014000FFF7F0FF204610BD064C074D06E0E068C3
:1001500040F0010394E8070098471034AC42F6D30E
:10016000FFF7C8FF281D0008481D000870B50024CF
:10017000094D022615F8340048B1012807D1204660
:1001800000F0DCF8142000F0B3FC05F83460641CC7
:10019000E4B2052CEED370BD180000207047FEE7D6
:1001A00000B58BB0002000900190029001210390D7
:1001B0000590CDE9060104900E20CDE908106946AE
:1001C000064800F045F9054800F05EFC002803D120
:1001D0000221024800F0C6F80BB000BDF801002073
:1001E00010B50F4C207868B101280FD0022808D133
:1001F000102304F16002FE210A4800F02DF80020CF
:10020000207010BD064A1023403202E0044A102339
:100210005032FE21034800F01FF82078401CEFE721
:1002200000000020F801002010B50823084AFE2134
:10023000084800F011F8012000F05AFC044A082395
:100240000832BDE81040FE21024800F005B8000069
:1002500008000020F80100202DE9F047824686B012
:100260000020082700910290CDE903071E46914621
:10027000044621E0301BC0B2082801D3049700E0F7
:100280000490002541F2883802E06D1C454504D8F1
:10029000504600F0C9F90028F7D009EB0402084BDA
:1002A0006946504600F070F818B1002006B0BDE86D
:1002B000F08704982044C4B2B442DBD30120F5E7B0
:1002C000940100201023034A4FF4A0710248FFF765
:1002D000C3BF000070000020F80100201023034A73
:1002E00040F241110248FFF7B7BF00008000002034
:1002F000F80100201023034A4FF4A1710248FFF7D0
:10030000ABBF000090000020F80100201023034A3A
:1003100040F243110248FFF79FBF0000A0000020F9
:10032000F80100201023034A4FF4A2710248FFF79E
:1003300093BF0000A0000020F801002005280ED285
:10034000DFE800F0030507090B00FFF7BBBFFFF76D
:10035000C5BFFFF7CFBFFFF7D9BFFFF7E3BF7047B8
:100360007047704790F82020012A07D0022A05D054
:10037000416A41F48021416201207047006842696E
:100380000A43426100207047F0B590F8205004689D
:10039000A468012D05D0022D03D0416A41F48021CB
:1003A00053E014F0406F01D1E5004BD5C4F3016474
:1003B000022C03D9416A41F4000146E00125A54021
:1003C0001D608D684FF4C0739DB1CE6835434E6893
:1003D00045EAC605066803EB0417F5514FF4C275EC
:1003E000076805EB04150E697E51097D012905D0CA
:1003F00009E00E88CD6845EA4655EBE701684E599D
:1004000046F480764E511179D2F805504FF4C676F5
:1004100041EA0525016806EB04168D511178D2F8E2
:1004200001204FF4C47541EA0221026805EB04156E
:100430005151006803EB0411425842F0010242504E
:100440000020F0BD416A41F4001141620120F0BD7D
:1004500010B590F820300268012B07D0022B05D090
:10046000416A41F480214162012010BDD2F80002AE
:1004700040F00100C2F80002087D00F01F030120D7
:100480009840D2F81C328343C2F81C32CB69B3B90E
:10049000D2F80C328343C2F80C328C894B6864F377
:1004A0001F434C6902EBC404C4F840320C890B684A
:1004B00064F31F434C6902EBC404C4F84432CB69B3
:1004C000012B16D1D2F80C320343C2F80C320C883F
:1004D0004B6864F31F434C6902EBC404C4F8403218
:1004E0000C89CB6864F31F434C6902EBC404C4F865
:1004F00044328B69002BD2F804320FD053EA000348
:10050000C2F804320B69002BD2F8143208D003432E
:10051000C2F81432096A012904D008E08343EFE7E6
:100520008343F5E7D2F81C120143C2F81C12D2F83B
:10053000000220F00100C2F80002002010BD704748
:1005400030B590F82040012C05D0022C03D0416A30
:1005500041F480215DE00468002955D02469A40796
:1005600054D04FF4D874056804EB01142D5915F0DC
:100570000405956005682D594ED0ED085560056855
:100580002C59C4F34004D4604FF4DA74056804EBCA
:1005900001142D5905F00F05156105682D59C5F396
:1005A0000725956105682C59240C54614FF4DC72C1
:1005B000046802EB0112A4581C700468A458240AB1
:1005C0005C700468A458240C9C700468A258120E35
:1005D000DA704FF4DE72046802EB0112A4581C7149
:1005E0000468A458240A5C710468A458240C9C7103
:1005F0000468A258120EDA71006881B1016941F0F5
:1006000020010161002030BDE468A8E7416A41F49F
:1006100000114162012030BD6D0D1560AFE7C1686A
:1006200041F02001C160EDE70246002092F8201061
:10063000012901D002290CD111688A68520100D524
:1006400001208A68120100D5401C8968C90000D5C4
:10065000401C70472DE9F05F05460068002446699C
:10066000D0F804908768D0F80CB0D0F810A0D0F87B
:100670001880F10748D0F90714D001218160B8072C
:1006800003D5284600F02DFA0CE0780702D54FF488
:10069000006407E0380702D54FF4805402E0284692
:1006A00000F01EFAF80516D529684FF480708860AE
:1006B000B80503D5284600F016FA0CE0780502D5F7
:1006C00044F4005407E0380502D544F4804402E0C5
:1006D000284600F007FAF80316D529684FF4803051
:1006E0008860B80303D5284600F0FFF90CE07803D2
:1006F00002D544F4004407E0380302D544F48034C2
:1007000002E0284600F0F0F9300707D55FEACB6039
:1007100004D52968102044F40074C86070074FF0B5
:10072000080707D55FEA0B7004D52868C76028461C
:1007300000F05AF9B00706D52868C068800702D0D3
:10074000284600F053F9700607D55FEACA6004D561
:100750002968102044F480640861B00607D55FEA78
:100760000A7004D528680761284600F089F9F00668
:1007700006D528680069800702D0284600F081F974
:10078000B00308D55FEAC96005D529681020486024
:10079000284600F077F9F00307D55FEA097004D521
:1007A00028684760284600F0A1F9300446D55FEA82
:1007B000497040D5F00504D55FEAC87001D044F017
:1007C0000104B00504D55FEA887001D544F0020445
:1007D000700504D55FEA487001D544F00404300583
:1007E00029D518F0700F26D008F07000402815D0D9
:1007F00006DC102809D020280AD0302816D10AE0BB
:1008000050280ED0602811D10EE044F008040DE00D
:1008100044F010040AE044F0200407E044F04004EF
:1008200004E044F0800401E044F4807428688169A5
:1008300021F070018161296804204860002C05D0F6
:10084000686A204368622846FFF779FEBDE8F09F9A
:1008500070B5040003D094F8200010B104E001202A
:1008600070BD204600F082F82068016821F0020186
:10087000016000F037FA0546052604E000F032FA80
:10088000401B0A2811D8206840688007F6D42068E9
:10089000016841F00101016000F024FA05460BE017
:1008A00000F020FA401B0A2806D9606A40F40030A4
:1008B000606284F82060D2E720684068C007EFD00B
:1008C000207E0128206801683DD021F08001016070
:1008D000607E01282068016838D021F04001016065
:1008E000A07E01282068016833D021F0200101603A
:1008F000E07E0128206801682ED041F010010160DF
:10090000207F01282068016829D021F008010160BA
:10091000607F01282068016824D021F00401016073
:10092000D4E902010843D4E9041211430843616881
:10093000491E08432168C86100206062012084F8D4
:100940002000002070BD41F08001C0E741F040016F
:10095000C5E741F02001CAE721F01001CFE741F0DF
:100960000801D4E741F00401D9E7000010B586B0D2
:10097000002100910191029103910068174988427A
:100980002AD11748C16941F00071C161C16901F004
:1009900000710491816941F0040181618069114C09
:1009A00000F0040004904FF4006000906946204677
:1009B00000F0B0F8A01400900220019003200390F2
:1009C0006946204600F0A6F800221146142000F0E7
:1009D000F3F9142000F0E4F906B010BD0064004003
:1009E00000100240000801407047000000B5224A94
:1009F000016889B0914218D107AB6A460021FFF720
:100A00009FFD009940F205231C48A1F2052299425E
:100A100025D00CDC111D16D0012918D002291AD0BE
:100A2000032902D1C168491CC16009B000BD012A77
:100A300019D0022A1BD0A2F58072FF3AF5D1C16904
:100A4000491CC161F1E70168491C0160EDE741689B
:100A5000491C4160E9E78168491C8160E5E701695B
:100A6000491C0161E1E74169491C4161DDE7816998
:100A7000491C8161D9E700000064004008010020A2
:100A8000704770477047000070B5044690F820002A
:100A9000012804D0606A40F40020606218E002205F
:100AA00084F820002068016821F00101016000F055
:100AB00019F905460EE000BF00F014F9401B0A28A2
:100AC00008D9606A40F400306062052084F8200094
:100AD000012070BD20684068C007EDD1606270BD24
:100AE0007047704770477047704770477047000005
:100AF00070B5044600F0F6F80546601C02D00448C4
:100B00000078044400F0EEF8401BA042FAD370BD18
:100B1000F80000202DE9F84FDFF890A100220AF13B
:100B2000040B144601274FF00F090BF1040E00BF10
:100B30000B6807FA04F52B40AB4274D1DFF870C1A3
:100B40004E68A6EB0C0866452BD00DDC032E34D086
:100B500005DC36B3012E19D0022E2FD11BE0112E49
:100B600016D0122E2AD119E0B8F5881F19D006DC4C
:100B7000B8F5803F15D0B8F5801F1FD111E0B8F54A
:100B8000001F0ED0B8F5041F18D10AE0CA6815E09E
:100B9000CA68121D12E0CA6808320FE0CA680C3237
:100BA0000CE08A682AB1012A4FF0080203D045619F
:100BB00004E0042202E0056100E00022FF2B01D8DE
:100BC000064601E000F104064FEA840501D9A5F1CB
:100BD0002005D6F800C009FA05F82CEA080C02FA3C
:100BE00005F54CEA050CC6F800C04D68ED0057D578
:100BF000304DAE6946F00106AE61AD6924F00306E2
:100C000005F0010500952C4D06EB050CDCF80850AD
:100C1000A6074FEA167809FA08F6B543274EB04200
:100C200002D1002610E03BE0254EB04201D1012662
:100C30000AE0244EB04201D1022605E0224EB04225
:100C400001D1032600E0042606FA08F62E43CCF86C
:100C500008604D68DAF80060ED03554601D51E4383
:100C600000E09E432E604D68DBF80060AD035D46FA
:100C700001D51E4300E09E432E604D68DEF8006003
:100C8000ED02754601D51E4300E09E432E604D687F
:100C9000AD020E4D2E6801D51E4300E09E432E602E
:100CA000641C102CFFF444AFBDE8F88F0004014031
:100CB0000000111000100240000001400008014037
:100CC000000C014000100140001401400C040140E0
:100CD000C2684A40C26070470AB1016170470904A6
:100CE000FBE700000148806870470000F800002022
:100CF000024881680278114481607047F800002042
:100D0000074810B5016841F010010160032000F0B0
:100D100073F8002000F006F800F024F8002010BD61
:100D20000020024070B50D4D04464FF47A712878CA
:100D3000B1FBF0F00A490968B1FBF0F000F0FCFAF1
:100D400048B9102C07D200222146501E00F034F87A
:100D500000206C6070BD012070BD0000F800002014
:100D6000040100200C4808B5816941F0010181614E
:100D7000816901F001010091C16941F08051C161B7
:100D8000C06900F0805000900448416821F0E061A3
:100D900041F00071416008BD0010024000000140B8
:100DA00000F01F02012191404009800000F1E02085
:100DB000C0F8001170470000F0B40E4B1B680C46E1
:100DC000C3F30223C3F10705042D00D90425191D1F
:100DD000072901D2002300E0DB1E012606FA05F1F7
:100DE000491E214099409E40761E16403143F0BC7A
:100DF00000F0C2BD0CED00E0064900F007020868F3
:100E00004FF6FF03184040EA0220034A10430860EF
:100E1000704700000CED00E00000FA052DE9F047F6
:100E2000DFF8548105460E46D8F8000000F00700B0
:100E3000B0420CD2D8F8001021F007013143C8F8B5
:100E40000010D8F8000000F00700B0426FD1286809
:100E50004A4C810712D5400703D5606840F4E06032
:100E600060602878000703D5606840F460506060D7
:100E70006068A96820F0F000084360602878C00727
:100E800044D06868012816D02168022816D0890746
:100E900000294CDA616821F0030101436160FFF72A
:100EA00021FF6968074641F2883001290ED00229E6
:100EB000814618D026E021688903E9E78901E7E740
:100EC000FFF710FFC11B494501D918E08146606852
:100ED000C0F381000128F3D118E000BFFFF702FF43
:100EE000C11B49450BD86068C0F381000228F5D1C9
:100EF0000CE000BFFFF7F6FEC11B494502D90320F5
:100F0000BDE8F087606810F00C0FF3D1D8F800103E
:100F1000404601F00701B1420BD9016821F00701F9
:100F200031430160006800F00700B04201D00120A9
:100F3000E6E72878400705D56068E96820F4E060B6
:100F4000084360602878000706D56068296920F4A6
:100F5000605040EAC100606000F036F86168084AFD
:100F6000C1F30311515CC840064908600020FFF737
:100F7000D9FE0020C4E7000000200240001002401B
:100F8000101D000804010020044805490068496854
:100F9000044AC1F30221515CC8407047040100209B
:100FA00000100240201D00080448054900684968F7
:100FB000044AC1F3C221515CC840704704010020BB
:100FC00000100240201D000812A185B00FC98DE855
:100FD0000F0014A0144A006804905168134801F0EF
:100FE0000C03042B10D0082B0ED1C1F38343C9038B
:100FF0001DF803000AD5516804AAC1F34041515CB1
:101000000A4A5043B0FBF1F005B070470849484325
:10101000FAE7000002030405060708090A0B0C0D95
:101020000E0F1010010200000010024000127A00A2
:1010300000093D002DE9F84F04460078B94DC0077E
:1010400048D06868C0F38100012807D06868C0F301
:101050008100022809D16868C00306D5286880038A
:1010600038D5606800286FD034E06068B0F5803F04
:101070000BD010B1B0F5A02F11D0286820F480302B
:101080002860286820F4802002E0286840F480303E
:101090002860606888B1FFF725FE064609E02868E9
:1010A00040F480202860F0E7FFF71CFE801B6428D6
:1010B00075D828688003F7D50CE0FFF713FE0646C5
:1010C00005E000BFFFF70EFE801B6428F0D82868FB
:1010D0008003F7D42078944E80074FF001094FF039
:1010E00000083BD5686810F00C0F07D06868C0F3A3
:1010F0008100022809D16868C00306D428688007E7
:1011000014D5206901281FD110E02069B0B1C6F8BC
:101110000090FFF7E7FD074605E000BFFFF7E2FD9F
:10112000C01B0228C4D828688007F7D528686169E1
:1011300020F0F80040EAC10028600FE0C6F8008007
:10114000FFF7D0FD074606E0E9E000BFFFF7CAFD64
:10115000C01B022823D828688007F7D4207800070E
:101160002CD57248A169D9B1C0F80090FFF7BAFD3B
:10117000074604E0FFF7B6FDC01B02280FD8686AD7
:101180008007F7D56A484FF4FA510068B0FBF1F0D8
:10119000009000BF0098411E0091FAD20EE080E05E
:1011A000C0F80080FFF79EFD074604E0FFF79AFDB8
:1011B000C01B022875D8686A8007F7D420784007DA
:1011C00060D5E8690027C00008D4E86940F0805085
:1011D000E861E869012700F08050009055480168F7
:1011E000C90513D40168834641F480710160FFF79B
:1011F00079FD824606E000BFFFF774FDA0EB0A0010
:1012000064284ED8DBF80000C005F5D5E068012859
:101210000AD008B1052813D0286A20F001002862FE
:10122000286A20F0040002E0286A40F001002862E9
:10123000E06841F2883B98B1FFF754FD82460BE02D
:10124000286A40F004002862EEE700BFFFF74AFD7D
:10125000A0EB0A0159455AD8286A8007F6D50CE058
:10126000FFF740FD824605E0FFF73CFDA0EB0A01D9
:1012700059454CD8286A8007F6D41FB1E86920F098
:101280008050E861E06988B36968C1F3810102298F
:1012900045D00228C6F8608004D0FFF723FD04463D
:1012A00038E034E0FFF71EFD074604E0FFF71AFDC3
:1012B000C01B02282BD828688001F7D4206AB0F51B
:1012C000803F05D16868A16820F400300843686059
:1012D000D4E908010843696821F47411084368607F
:1012E000C6F86090FFF7FEFC044606E015E000BF7C
:1012F000FFF7F8FC001B022809D828688001F7D501
:101300000BE000BFFFF7EEFC001B022802D9032010
:10131000BDE8F88F28688001F4D40020F8E70120A8
:10132000F6E7000000100240000042428004424202
:10133000040100200070004010B5401EB0F1807F15
:1013400001D3012010BD4FF0E02460610F21601730
:1013500000F012FB0020A06107202061002010BDDA
:101360007047704730B590F83C20012A20D0012208
:1013700080F83C20022380F83D3003685C6824F04C
:1013800070045C6003685C680D682C435C600368F3
:101390009C6824F080049C6003689C6849680C4346
:1013A0009C6080F83D20002180F83C10084630BD4C
:1013B000022030BD10B5040003D094F83D0010B1F8
:1013C00007E0012010BD002084F83C00204600F01A
:1013D0000DF8022084F83D00211D206800F032FB4A
:1013E000012084F83D00002010BD000008B5006811
:1013F0000B49884212D10B48C16941F00201C16119
:10140000C069002200F00200009011461D20FFF785
:10141000D3FCBDE808401D20FFF7C2BC08BD00009A
:1014200000040040001002400168CA6842F0010256
:10143000CA600068016841F0010101600020704746
:1014400070B5044690F83C00012817D0012584F8B7
:101450003C50022084F83D002068826822F0770228
:1014600022F47F4282600868502837D00DDC2028A3
:1014700059D005DC88B3102841D151E0022070BD5D
:10148000302853D040283AD13FE060282ED0702831
:101490000BD0B0F5805F03D0B0F5005F2FD110E026
:1014A0002068816821F0070115E0CB68D1E90121AE
:1014B000206800F0FDFA2168886840F077008860B5
:1014C0001DE0CB68D1E90121206800F0F1FA206825
:1014D000816841F48041816011E01EE0CA6849687A
:1014E000206800F0F7FA5021206806E0CA684968D1
:1014F000206800F000FB6021206800F0E3FA84F827
:101500003D50002084F83C0070BDCA6849682068DE
:1015100000F0E0FA40212068EFE700212068ECE7C6
:1015200010212068E9E720212068E6E730212068C3
:10153000E3E7704770B50446006801694FF00005A5
:10154000C943890715D4C168C943890711D4E91E65
:10155000016101202077206880698007204602D041
:10156000FFF7E7FF04E000F098F8204600F096F857
:10157000257720680169C943490717D4C168C94361
:10158000490713D46FF0040101610220207720681D
:10159000806910F4407F204602D0FFF7CAFF04E0C4
:1015A00000F07BF8204600F079F825772068016983
:1015B000C943090716D4C168C943090712D46FF09B
:1015C00008010161042020772068C0698007204657
:1015D00002D0FFF7AEFF04E000F05FF8204600F015
:1015E0005DF8257720680169C943C90617D4C16829
:1015F000C943C90613D46FF0100101610820207798
:101600002068C06910F4407F204602D0FFF791FFA8
:1016100004E000F042F8204600F040F8257720680A
:101620000169C943C90708D1C168C943C90704D1C1
:10163000891E0161204600F033F820680169C94322
:10164000090609D4C168C943090605D46FF08001B1
:1016500001612046FFF784FE20680169C9434906FD
:1016600009D4C168C943490605D46FF0400101613E
:10167000204600F03DF820680169C94389060BD473
:10168000C168C943890607D46FF020010161204673
:10169000BDE87040FFF765BE70BD70477047000041
:1016A00010B510490068096888421AD10E490868C7
:1016B000401C08604FF4FA71B0FBF1F201FB12001C
:1016C00000280ED1094C80212046FFF701FB402164
:1016D0002046FFF7FDFA2046BDE810402021FFF725
:1016E000F7BA10BD20020020F4000020000C0140D9
:1016F000704770B5040004D094F83900002510B18B
:1017000006E0012070BD84F83850204600F022F831
:10171000242084F839002068C16821F40051C16098
:10172000204600F0FBF92068016921F49041016135
:101730002068416921F02A0141612068C16841F4B3
:101740000051C160E563202084F8390084F83A0034
:10175000002070BD30B585B000240094019402943F
:10176000039400681449884224D11448816941F4E3
:1017700080418161816901F480410491816941F076
:101780000401816180690E4D00F0040004904FF463
:1017900000700090022001900320039069462846C3
:1017A000FFF7B8F92815CDE90004694628460294E8
:1017B000FFF7B0F905B030BD00380140001002401D
:1017C00000080140FEE700000F4810B50D49016018
:1017D0000621416000214FF400328160C0E903120C
:1017E000D2004261017641768176C17601774177F8
:1017F000FFF72EF8002803D0BDE81040FEF7B1BD7A
:1018000010BD000000640040F8010020F0B585B074
:1018100000242C480094019402940394816941F0BF
:1018200010018161816901F010010491816941F029
:1018300020018161816901F020010491816941F0F9
:1018400004018161816901F004010491816941F021
:101850000801816180691C4F00F008004FF4387660
:101860000490002231463846FFF736FA4FF46040C4
:101870000325CDE9000569461448FFF74BF948F206
:10188000FF10CDE9000569461148FFF743F9CDE99E
:101890000054694638460294FFF73CF94FF61C5055
:1018A000CDE9000569463846FFF734F90120009676
:1018B000CDE901040220039069463846FFF72AF972
:1018C00005B0F0BD00100240000C014000100140C6
:1018D0000008014010B586B0002417480094019418
:1018E0000294039404941349059401604721C0E9CC
:1018F000011440F2E731C0E903148461FFF75AFD97
:1019000008B1FEF72EFD4FF48050009069460A485A
:10191000FFF796FD08B1FEF724FD049404A90648DC
:101920000594FFF71FFD002801D0FEF71AFD06B051
:1019300010BD000000040040200200200C4810B53B
:101940000A4901604FF4E1314160002181600C22BD
:10195000C160C0E904128161C161FFF7CAFE0028BD
:1019600003D0BDE81040FEF7FCBC10BD00380140BC
:1019700060020020FEE770470907090E002806DA1A
:1019800000F00F0000F1E02080F8141D704700F116
:10199000E02080F80014704770477047FFF7A8B93F
:1019A00030B58FB028216846FEF7C3FB14210AA882
:1019B000FEF7BFFB01210804CDE9001000240294CA
:1019C00002250491CDE907504FF4E01009906846D4
:1019D000FFF730FB0F20CDE90A056802CDE90C4086
:1019E00002210AA80E94FFF719FA0FB030BD0000CB
:1019F0000D48016841F00101016041680B4A114046
:101A0000416001680A4A11400160016821F48021A7
:101A10000160416821F4FE0141604FF41F018160C3
:101A20000449C00308607047001002400000FFF83E
:101A3000FFFFF6FE08ED00E00148FFF77BBD000068
:101A400020020020F0B50268164B174C174D4FF0DE
:101A50008047984205D0B84203D0A04201D0A842A6
:101A600003D122F070064A683243984205D0B8424A
:101A700003D0A04201D0A84203D122F44074CA6826
:101A8000224322F080044A69224302608A68C262CB
:101A90000A688262984201D10969016301214161AA
:101AA000F0BD0000002C0140000400400008004090
:101AB00010B5846842EA032224F47F440A43224397
:101AC000826010BD826822F070020A4342F0070172
:101AD0008160704710B5036A046A24F0010404624F
:101AE000846924F0F00444EA021423F00A020A4351
:101AF0008461026210BD10B5036A23F01003036213
:101B00008369046A23F4704343EA023224F0A00399
:101B100043EA01118261016210BD00002DE9F0412C
:101B2000044600680169E26821F4405111430161F3
:101B30002169A0680843616908432168CA6841F2C5
:101B40000C639A430243CA6020684169A26921F488
:101B50004071114341614C49206864253226884216
:101B60003CD1FFF721FA00EBC00101EB00106168E6
:101B70008900B0FBF1F7FFF717FA00EBC00101EBAA
:101B800000106168B0468900B0FBF1F0B0FBF5F0E1
:101B90006FF01801484307EB800106EB0110B0FB22
:101BA000F5F000F0F006FFF7FFF900EBC00101EBE4
:101BB000001061688900B0FBF1F0B0FBF5F006EBB6
:101BC0000016FFF7F1F900EBC00101EB00106168AE
:101BD0008900B0FBF1F7FFF7E7F93BE0FFF7D4F935
:101BE00000EBC00101EB001061688900B0FBF1F768
:101BF000FFF7CAF900EBC00101EB00106168B046C5
:101C00008900B0FBF1F0B0FBF5F06FF0180148432C
:101C100007EB800106EB0110B0FBF5F000F0F006D9
:101C2000FFF7B2F900EBC00101EB00106168890019
:101C3000B0FBF1F0B0FBF5F006EB0016FFF7A4F9EE
:101C400000EBC00101EB001061688900B0FBF1F707
:101C5000FFF79AF900EBC00101EB00106168890001
:101C6000B0FBF1F0B0FBF5F06FF01801484307EB63
:101C7000800108EB0110B0FBF5F0216800F00F00C7
:101C800030448860BDE8F081003801400148FEF72B
:101C9000E1BC0000F8010020FEE702E008C8121FC6
:101CA00008C1002AFAD170477047002001E001C145
:101CB000121F002AFBD17047FFF722F8FFF770FED2
:101CC000FFF7A4FDFFF780FDFFF704FEFFF736FEE8
:101CD0000C48FFF7A9FB0C4C6070FEF761FA20700E
:101CE0000A20FEF705FFFEF79FFA084DFEF73EFAC1
:101CF00028686168401AC828F8D3FEF771FA286886
:101D00006060F3E720020020EC000020F4000020D7
:101D1000000000000000000001020304060708099B
:101D20000000000001020304481D0008000000201C
:101D3000080100009A1C0008501E0008080100203D
:101D400098050000AA1C0008000100000000000027
:101D50005A000033000101FFFF0100001512FCEAE8
:101D6000000000009D010008000000009D01000827
:101D7000000000009D010008000000009D01000817
:101D8000000000009D0100085A00000C000101FF46
:101D9000FF01000015B82F6F5A000056000101FF27
:101DA000FF010000157EDD675A0000AC000101FF55
:101DB000FF0100001572E8765A00000500010102DB
:101DC0000001000715CF1D495A0000000001010263
:101DD0000101000715DF73565A00000000010102DF
:101DE00002010007159174F15A0000000001010280
:101DF00003010007155CB6E85A04000400010B0259
:101E0000FF0100061001000000002C535A04008658
:101E100001010102FF01000610F9010000008D53CD
:101E20005A04008A01010B02FF010006104701005D
:101E300000002D1D00000000000000000000000058
:101E400001000000100000000000000000A24A0491
:04000005080000ED02
:00000001FF
